:020000040800F2
:10200000B03200204D2100081126000829250008C3
:102010000D260008B92100081F3700080000000045
:1020200000000000000000000000000085320008F1
:10203000E521000800000000612C00087133000851
:102040006721000867210008D5330008D72F000852
:102050006721000867210008672100086721000840
:1020600067210008E92100086721000867210008AE
:102070006721000867210008672100086721000820
:102080006721000867210008672100081B37000846
:102090001D3700086721000867210008ED210008AE
:1020A00067210008D733000867210008672100086E
:1020B000D9330008DB3300086721000867210008D6
:1020C000672100086721000867210008D92F000850
:1020D000E92F0008DD3300086721000867210008A8
:1020E000E7210008D52F000867210008FFFFFFFF48
:1020F000FFFFFFFFFFFFFFFFFFFFFFFFFFFFFFFFF0
:10210000FFFFFFFFFFFFFFFFFFFFFFFFFFFFFFFFDF
:10211000FFFFFFFFFFFFFFFFFFFFFFFFFFFFFFFFCF
:10212000FFFFFFFFFFFFFFFFFFFFFFFFFFFFFFFFBF
:10213000FFFFFFFFFFFFFFFFDFF80CD000F02AF8E2
:1021400000480047C5390008B032002006488047E3
:1021500006480047FEE7FEE7FEE7FEE7FEE7FEE78C
:10216000FEE7FEE7FEE7FEE77533000839210008C9
:10217000D2B201E000F8012B491EFBD270470022C9
:10218000F6E710B513460A4604461946FFF7F0FF76
:10219000204610BD064C074D06E0E06840F0010304
:1021A00094E8070098471034AC42F6D3FFF7C8FF15
:1021B000403B0008603B000800BFFEE710B5064842
:1021C0000078552806D105480188054801F000F837
:1021D00000F0FEF910BD0000030000200C000020FC
:1021E00034000020704770477047000010B54FF46E
:1021F000807000F011F830B14FF4807000F006F8F4
:1022000001200149087010BD160000200149086036
:102210007047000014040140014600200022074BD3
:102220001B6803EA0102054B14331B680B4013B112
:102230000AB1012000E000207047000000040140C6
:10224000002123498279002A3AD00A46126803689D
:102250009A430B461A600A1D126803689A430B1DC5
:102260001A60027911440A6803681A430A60184A1E
:102270000832126803689A43154B08331A601A1D16
:10228000126803689A43124B0C331A604279102A81
:102290000ED11A1F126803681A430D4B08331A60D7
:1022A0001A1D126803681A43094B0C331A600DE0BB
:1022B0000749427911440A6803681A430A6005E035
:1022C000027911440A6803689A430A607047000063
:1022D000000401400549096821F01001034A11601A
:1022E0001146096801431160704700000020024058
:1022F00001460020034A106800F0380008431060CF
:10230000704700000020024030B500228B071C0FF0
:102310000F2303FA04F20B4B8C1053F82430934331
:10232000084C8D1044F8253023468C1053F8243087
:102330008C07240F00FA04F42343024C8D1044F858
:10234000253030BD080001402DE9F041024600254E
:102350000026002000230024002791F803C00CF081
:102360000F0591F803C00CF0100CBCF1000F03D066
:1023700091F802C04CEA050591F800C0BCF1000FCD
:1023800031D0146800202BE04FF0010C0CFA00F360
:10239000B1F800C00CEA03069E4220D183004FF042
:1023A0000F0C0CFA03F7BC4305FA03FC4CEA0404D7
:1023B00091F803C0BCF1280F06D14FF0010C0CFAC4
:1023C00000FCC2F814C00AE091F803C0BCF1480F49
:1023D00005D14FF0010C0CFA00FCC2F810C0401CF3
:1023E0000828D1D31460B1F800C0BCF1FF0F34DD70
:1023F000546800202EE000F1080C4FF0010808FAA4
:102400000CF3B1F800C00CEA03069E4221D1830010
:102410004FF00F0C0CFA03F7BC4305FA03FC4CEA2F
:10242000040491F803C0BCF1280F05D100F1080C99
:1024300008FA0CF8C2F8148091F803C0BCF1480FF8
:1024400007D100F1080C4FF0010808FA0CF8C2F8A7
:102450001080401C0828CED35460BDE8F0810000F5
:10246000F0B50A46002300240021002500F00046B4
:10247000B6F1004F02D11D4EF16901E01B4E7168AB
:10248000C0F3034583B200F44016B6F5401F08D1EF
:1024900021F07061154E766826F07066134F7E60ED
:1024A00012E000F48016B6F5801F06D1032606FA66
:1024B00005F4A14341F0706106E0460D360103FAD0
:1024C00006F6B14341F0706122B1460D360103FAC0
:1024D00006F6314300F00046B6F1004F02D1034E3C
:1024E000F16101E0014E7160F0BD000000000140AB
:1024F0000246002093680B400BB1012000E0002051
:102500007047416170470AB1016100E04161704765
:1025100000B55521552901D001F003F90148007893
:1025200000BD00001000002000BFFEE70EB5012135
:102530000C2000F0A7FB012001F086FA40F6020013
:10254000ADF8080010208DF80B0001208DF80A006E
:1025500002A91D48FFF7F8FE40F20310ADF808008D
:1025600010208DF80B0001208DF80A0002A91748F1
:10257000FFF7EAFE01211548FFF7C3FF02211348C8
:10258000FFF7BFFF4FF48070ADF8080028208DF8EA
:102590000B0003208DF80A0002A90B48FFF7D4FEB8
:1025A00008210020FFF7B0FE4FF48070009000205B
:1025B0008DF8040008208DF8050001208DF8060034
:1025C0006846FFF73DFE0EBD00080140000C0140CB
:1025D000002002490870024908707047020000207C
:1025E000030000204FF4404101804FF4827141808C
:1025F00000218180C18001814FF40071418130212F
:1026000081810021C18107210182704700BFFEE75F
:10261000704708B54FF40051880300F047F81720C1
:102620008DF8000000208DF8010001208DF80200D7
:102630008DF80300684600F001F808BD70B5002170
:1026400000230F22C47804B3154C246804F4E0641A
:10265000C4F5E064210AC1F10403CA40447804FAD5
:1026600003F184781440214309010E4C0678A155EA
:10267000047804F01F050124AC4005786D11AD000D
:1026800005F1E025C5F8004109E0047804F01F05D4
:102690000124AC40044D0678761145F8264070BD03
:1026A0000CED00E000E400E080E100E0024A0A40B6
:1026B0000243024B1A60704780FFFF1F08ED00E0E5
:1026C00038B5BDE20121684601F00EF90446002C40
:1026D00000DC38BDFE4800781B287DD2DFE800F022
:1026E0000E4A6684A0BAD6FDF7F6F57C7C7C7C7C2D
:1026F0007C7C7C7CF4F3F2F1F0EFEE000020F549F5
:1027000008709DF80000552810D19DF80000F2498E
:1027100008700120F1490860ED4908709DF800003B
:10272000EF4908800020EF49087022E09DF8000082
:1027300002280ED19DF80000E74908709DF80000BE
:10274000E94908700120E54908601920E04908704E
:102750000FE09DF8000001280BD19DF80000DE4934
:1027600008700120DD490860DE4908701420D8494E
:10277000087064E29DF80000552813D19DF80020F0
:10278000D6490868411CD54B1960D3490A54022028
:10279000CF490870D24800889DF800100844D049FD
:1027A000088002E00020CA49087048E29DF8000055
:1027B000AA2815D19DF80020C8490868411CC74BBC
:1027C0001960C5490A540320C1490870C4480088EB
:1027D0009DF80010084400E028E2C149088002E0AA
:1027E0000020BB4908702AE29DF80000AA2813D1F6
:1027F0009DF80020B9490868411CB84B1960B649DA
:102800000A540420B2490870B54800889DF80010A9
:102810000844B349088002E00020AD4908700EE288
:102820009DF80020AD490868411CAC4B1960AA49CD
:102830000A54AB4800889DF800100844A849088055
:102840001846006840F20A21884202D10520A049BA
:102850000870F4E19DF80000552813D19DF8002080
:102860009E490868411C9D4B19609B490A540620EB
:10287000974908709A4800889DF8001008449849C4
:10288000088002E0002092490870D8E19DF800001D
:10289000AA281ED19DF8002090490868411C8F4B42
:1028A00019608D490A540720894908708C480088AE
:1028B0009DF8001008448A4908800DE076E15DE14A
:1028C0003AE11FE1E9E0D4E07DE04FE03DE020E0C7
:1028D00003E000207E490870B1E19DF80000552812
:1028E00013D19DF800207D490868411C7B4B19607D
:1028F00079490A54082076490870794800889DF87B
:10290000001008447649088002E0002070490870F1
:1029100095E19DF80000AA2813D19DF800206F4989
:102920000868411C6D4B19606B490A5409206849BD
:1029300008706B4800889DF80010084468490880BA
:1029400002E000206249087079E19DF800006749C3
:1029500008709DF8002061490868411C5F4B1960B0
:102960005D490A540A205A49087068E19DF8000040
:102970005E4948709DF8002058490868411C574B33
:10298000196055490A54002051490870544800887C
:1029900056490880084600885149098888420CD168
:1029A00055204C4908704FF40470514908800020AC
:1029B000474908704B4908708BE60020444908706D
:1029C000484908703BE19DF80000012812D19DF8AC
:1029D000002042490868411C404B19603E490A5496
:1029E0009DF80000404908703E480078401C3D4971
:1029F00008703DE09DF80000132818D19DF80020D4
:102A000036490868411C354B196033490A54364829
:102A100000789DF8001008443349087017202C49AD
:102A2000087030480078801C3149088020E09DF80B
:102A30000000122813D19DF8002028490868411C85
:102A4000264B196024490A54274800789DF8001045
:102A500008442549087015201D49087008E09DF8B4
:102A60000000012804D00020194908701D49087091
:102A7000E5E09DF8002019490868411C174B1960D2
:102A800015490A54184800789DF800100844164962
:102A9000087016200E490870D1E09DF800200F49FB
:102AA0000868411C0D4B19600B490A540E48007808
:102AB0009DF8001008440C4908709DF80000001DA6
:102AC0000849097808440A4908800846008811E046
:102AD0000200002003000020340000200800002035
:102AE00006000020040000200E000020000000204E
:102AF0000C000020FA2801DDFA2008801720514937
:102B000008709CE09DF800204F490868411C4E4B1E
:102B100019604E490A544E4800789DF80010084448
:102B20004B490870184600684A490988884202D112
:102B300018204449087082E09DF800004449097853
:102B4000884215D19DF800203F490868411C3E4B42
:102B500019603E490A54184600683E4908805520CD
:102B60003D4908700020374908703C490870B0E5BD
:102B70000020344908703949087060E09DF8000071
:102B8000032802D11A202F4908709DF800202E49F1
:102B90000868411C2C4B19602C490A542C480078B9
:102BA0009DF8001048402A49087048E09DF8000050
:102BB00027490978884207D09DF8000080F002007C
:102BC00023490978884215D19DF800201E490868DC
:102BD000411C1D4B19601D490A54184600681D49C7
:102BE000088055201C4908700020164908701B49B0
:102BF00008706EE59DF8002013490868411C124BCF
:102C0000196012490A54124800789DF80010484093
:102C10000F49087019200B49087018460068FF28F2
:102C200003D9002008700D49087008E00A480078B0
:102C300020B90020034908700849087000BF00BF90
:102C400040E50000020000200800002034000020C1
:102C50000E0000200C0000200300002004000020D3
:102C60007047000029B1064A12690243044B1A61F9
:102C700004E0034A12698243014B1A617047000065
:102C80000010024029B1064A92690243044B9A613E
:102C900004E0034A92698243014B9A617047000045
:102CA0000010024029B1064AD2680243044BDA60A0
:102CB00004E0034AD2688243014BDA6070470000A7
:102CC0000010024010B500F049F84FF4803000F0D9
:102CD00007F900F063F90446012C24D11020FFF716
:102CE000F9FA0220FFF704FB002000F0EDF80020C5
:102CF00000F028F9A00200F019F94FF4E0112004C7
:102D000000F032F9012000F029F900BF392000F06D
:102D1000B5F80028FAD0022000F034F900BF00F026
:102D2000CBF80828FBD101210846FFF7ABFF094883
:102D3000406820F0E060074948600846406840F07D
:102D4000806048602CB90448006840F000400249A7
:102D5000086010BD0000014004ED00E00F4800686D
:102D600040F001000D490860084640680C490840E1
:102D70000A494860084600680A490840074908604F
:102D80000846006820F4802008600846406820F467
:102D9000FE0048604FF41F0088607047001002403A
:102DA0000000FFF8FFFFF6FE30B5002100220024EE
:102DB00000232D4D6D6805F00C0121B1042905D0CB
:102DC000082923D105E0294D056022E0274D056043
:102DD0001FE0254D6D6805F47012234D6D6805F4F4
:102DE0008034022505EB92421CB9214D5543056004
:102DF0000BE01D4D6D6805F400351DB11C4D5543AC
:102E0000056002E0194D5543056002E0174D05606D
:102E100000BF00BF144D6D6805F0F0010909154DA4
:102E20006B5C0568DD4045600F4D6D6805F4E06141
:102E3000090A104D6B5C4568DD4085600A4D6D6880
:102E400005F46051C90A0B4D6B5C4568DD40C560F7
:102E5000054D6D6805F44041890B074D6B5CC568F5
:102E6000B5FBF3F5056130BD0010024000127A0099
:102E700000093D00200000203000002010B5014670
:102E80000022002300204A11012A02D1094C2368A4
:102E900006E0022A02D1074C236A01E0054C636A6E
:102EA00001F01F02012494401C400CB1012000E0FD
:102EB000002010BD001002400248406800F00C00E5
:102EC000704700000010024001460020034A50688D
:102ED00020F0F000084350607047000000100240EE
:102EE0001149096821F480310F4A116011460968BF
:102EF00021F480211160B0F5803F03D0B0F5802F20
:102F00000ED106E00849096841F48031064A116093
:102F100007E00549096841F4A021034A116000E077
:102F200000BF00BF704700000010024001460020B3
:102F3000034A506820F4E060084350607047000086
:102F40000010024001460020034A506820F46050FF
:102F500040EAC10050607047001002400149086615
:102F6000704700000000424202460020044B5868AF
:102F700020F47C1042EA01031843014B586070476B
:102F80000010024001460020034A506820F0030070
:102F900008435060704700000010024038B5002020
:102FA00000900024002500BF3120FFF767FF054691
:102FB0000098401C00900098B0F5A06F01D0002D43
:102FC000F2D03120FFF75AFF08B1012400E00024BD
:102FD000204638BD7047704710B57121014800F098
:102FE0003DF810BD00300140704721B1028842F029
:102FF0004002028004E002884FF6BF731A4002804C
:103000007047000010B504461148844208D10121E0
:103010008014FFF747FE0021A014FFF743FE16E0DF
:103020000C48844208D101210014FFF71BFE002147
:103030002014FFF717FE0AE00748844207D1012158
:10304000C013FFF70FFE0021E013FFF70BFE10BDCA
:103050000030014000380040003C0040F0B502461E
:10306000002000240023002501F00F070126BE40A8
:10307000B4B20B1101269E40B3B2968806EA03054E
:103080001689264016B10DB1012000E00020F0BDE8
:1030900010B50022028802F441520B884C88234369
:1030A0008C882343CC8823430C8923434C892343B6
:1030B0008C892343CC8923431A430280838B4FF2AC
:1030C000FF74234083830B8A038210BD70B50546CD
:1030D0004FF480713B48FFF70BFA002870D00022B4
:1030E0004FF400513848FFF70EFA00224FF4004128
:1030F0003548FFF708FA0A2000F066FB00224FF47B
:1031000080513148FFF7FFF90A2000F05DFB42E0F3
:103110000122D1032C48FFF7F6F9002420E0002219
:103120004FF400512848FFF7EEF9012000F04CFB66
:10313000012251032448FFF7E6F9244800882E189D
:103140004FF480412048FFF7D3F9C4F107018840CC
:10315000317808433070012000F036FB601CC4B2A7
:10316000082CDCDB00224FF400511748FFF7CBF9A5
:1031700000224FF400411448FFF7C5F913490888AD
:10318000411C124A118042F20401884200DB09E02E
:10319000142000F019FB4FF480710A48FFF7A8F9DA
:1031A0000028B5D100BF0122D1030748FFF7ABF9D2
:1031B000012211030448FFF7A6F9012070BDFFE7C3
:1031C0000020FBE700080140000C01401400002033
:1031D0002DE9F04105460E4600224FF400512848E3
:1031E000FFF791F900224FF400412548FFF78BF9D2
:1031F0000A2000F0E9FA00224FF480512048FFF73E
:1032000082F900242FE000271CE000224FF4005137
:103210001B48FFF778F9285DC2094FF400411848B0
:10322000FFF771F9012000F0CFFA285D4006000E8B
:103230002855012251031248FFF765F9012000F0DB
:10324000C3FA7F1C082FE0DB00224FF400510C482A
:10325000FFF759F90122D1030948FFF754F9282053
:1032600000F0B2FA641CB442CDD3322000F0ACFAC4
:10327000012211030248FFF746F90120BDE8F08161
:10328000000C0140704710B500F002F810BD0000BE
:103290000CB50020019000903348006840F4803065
:1032A0003149086000BF3048006800F400300090E9
:1032B0000198401C0190009818B90198B0F5A06FD2
:1032C000F1D12948006800F4003010B101200090CD
:1032D00001E0002000900098012843D123480068B5
:1032E00040F01000214908600846006820F0030003
:1032F00008600846006840F0020008601A4840680C
:10330000194948600846406848600846406840F4EB
:10331000806048600846406820F47C104860084699
:10332000406840F4E81048600846006840F080704B
:10333000086000BF0C48006800F000700028F9D059
:103340000948406820F00300074948600846406883
:1033500040F00200486000BF0348406800F00C00E5
:103360000828F9D10CBD00000010024000200240E6
:103370007047000010B51348006840F00100114983
:10338000086008464068104908400E4948600846F1
:1033900000680E4908400B4908600846006820F4A0
:1033A000802008600846406820F4FE0048604FF422
:1033B0001F008860FFF767FF4FF000600449086056
:1033C00010BD0000001002400000FFF8FFFFF6FEF5
:1033D00008ED00E0704770477047704710B540F245
:1033E0002551364800F0E1F880B340F225513348CA
:1033F00000F06EF84FF45871304800F0D6F848B13C
:103400002E4800F081F904464FF458712B4800F023
:10341000CCF81BE0294800F077F9044628490888D1
:10342000411C274B198027490C5418460088B0F5D9
:10343000197F02DB002019460880214800882249B4
:103440000988884202D10120204908704FF4B071E8
:103450001A4800F0AAF838B14FF4B071174800F0DC
:1034600037F8164800F050F92821144800F09DF86C
:1034700030B12821114800F02BF8104800F044F931
:103480004FF458710D4800F090F838B14FF458716E
:103490000A4800F01DF8094800F036F94FF4187199
:1034A000064800F082F838B14FF41871034800F074
:1034B0000FF8024800F028F910BD00000038014064
:1034C0001C0000204A2200201A0000201E000020BC
:1034D00010B5002200230A1201249440A3B2DC4359
:1034E000048010BD21B1828942F40052828104E03F
:1034F00082894DF6FF731A408281704710B50446E9
:103500002048844209D101218803FFF7CBFB002129
:103510004FF48040FFF7C6FB32E01B48844209D1DC
:1035200001214804FFF79EFB00214FF40030FFF714
:1035300099FB25E01548844209D101218804FFF751
:1035400091FB00214FF48020FFF78CFB18E010481E
:10355000844209D10121C804FFF784FB00214FF404
:103560000020FFF77FFB0BE00A48844208D10121CD
:103570000805FFF777FB00214FF48010FFF772FB7F
:1035800010BD0000003801400044004000480040E9
:10359000004C0040005000400246002013880B40C1
:1035A0000BB1012000E00020704770B502460B46C9
:1035B0000024002100250020C3F3421503F01F0161
:1035C000012606FA01F1012D02D19689314006E06B
:1035D000022D02D1168A314001E0968A31401C1238
:1035E000012606FA04F41688344011B10CB101200A
:1035F00000E0002070BDF0B5034600240026002541
:1036000000201846C1F3421401F01F06012707FAF3
:1036100006F5012C01D10C3004E0022C01D1103050
:1036200000E014301AB107682F43076002E0076812
:10363000AF430760F0BD00002DE9F04786B00546B6
:103640000E460024A24600BFA14600272F462C8A22
:103650004CF6FF700440F08804432C82AC894EF68F
:10366000F3100440B088318908437189084304434A
:10367000AC81AC8A4FF6FF400440B0890443AC8271
:1036800001A8FFF791FB1F48874202D1DDF810A087
:1036900001E0DDF80CA0A88900F4004040B10AEB7D
:1036A000CA0000EB0A1031684900B0FBF1F807E0EE
:1036B0000AEBCA0000EB0A1031688900B0FBF1F890
:1036C0006420B8FBF0F004012009642101FB10899B
:1036D000A88900F4004040B1322000EBC900B0FBE3
:1036E000F1F000F00700044308E0322000EB09107D
:1036F0006421B0FBF1F000F00F0004432C8106B010
:10370000BDE8F0870038014001468888C0F3080012
:103710007047C1F30802828070477047704700BF4E
:10372000FEE700BF00BF00BF00BF00BF00BF00BF7B
:1037300000BF00BF00BF00BF00BF00BF00BF00BF91
:1037400000BF00BFFEE700BF00BF00BF00BF00BF5B
:1037500000BF00BF00BF00BF00BF00BF00BF00BF71
:1037600000BF00BF00BF00BFFEE702E008C8121F95
:1037700008C1002AFAD170477047002001E001C15A
:10378000121F002AFBD170474FF0E021096921F098
:1037900004014FF0E0221161C21700EB5272C2F334
:1037A000C702074B1A701946097801EB4102C2EBB8
:1037B000C1114FF6FF7202EAC101024A118070473F
:1037C000110000201200002001460D4A12784A43E1
:1037D0004FF0E0235A6100229A6101221A6100BF72
:1037E0004FF0E022106900F001021AB100F48032BB
:1037F000002AF5D000224FF0E0231A619A61704749
:103800001100002000B587B032480078002857D159
:1038100031490880314908803148FFF76FFE0121A6
:103820000520FFF72FFA01218803FFF72BFA4FF449
:103830000070ADF8180018208DF81B0003208DF8DB
:103840001A0006A92748FEF77FFD4FF48060ADF807
:10385000180048208DF81B0006A92248FEF774FDC9
:103860004FF4E13002900020ADF80C00ADF80E00EE
:10387000ADF810000C20ADF812000020ADF81400D7
:1038800002A91748FFF7D8FE012240F2255114483B
:10389000FFF7B1FE01211248FFF724FE25208DF825
:1038A000040001208DF8050000208DF8060001209D
:1038B0008DF8070001A8FEF7C1FE01200549087038
:1038C00004480078012802D1002007B000BD4FF065
:1038D000FF30FAE71F0000201A0000201C00002023
:1038E000003801400008014070B504460E46FFF75D
:1038F00089FF401C10B94FF0FF3070BD002E02DC74
:103900004FF0FF30F9E714B94FF0FF30F5E700252D
:1039100014E00F490888411C0D4A11800D49095CCB
:10392000217010460088B0F5197F02DB0020114697
:103930000880641C6D1CB54200DB05E0044800886B
:10394000054909888842E4D100BF2846D5E7000030
:103950001A0000204A2200201C0000202DE9F0411E
:1039600004460D46FFF74EFF401C18B94FF0FF30DC
:10397000BDE8F081002D02DC4FF0FF30F8E714B90C
:103980004FF0FF30F4E716E0002707E038467F1CD1
:10399000B0F5801F02D34FF0FF30E9E780210848DF
:1039A000FFF7FAFD0028F1D0267831460448FFF7EA
:1039B000B0FE641C6D1E002DE6D10020D8E700008B
:1039C0000038014070B5002400255526AA24FFF7D1
:1039D00079F9FEF71EFE4820FFF7D6FEFFF712FF2B
:1039E000FEF7F6FDFEF7A2FD55251AE0FEF768FE8C
:1039F000FEF7E4FB11480078012812D100200F499E
:103A000008700F49088042F204010E48FEF7B7FB28
:103A10000C48FFF75BFB20B1094801880948FFF714
:103A20009DFF552D01D1AA2CE0D0552E01D0FFF7D6
:103A30008AFEFEF76DFD002070BD0000160000201C
:103A4000140000204602002010B586B00446022C67
:103A500002DBFF2006B010BD3548005D002865D1AF
:103A6000002C3ED101210D20FFF70CF901210803A4
:103A7000FFF708F92F48FFF7C5FA01210846FEF7BE
:103A8000EFFC2820ADF8140018208DF81700032053
:103A90008DF8160005A92848FEF756FC4FF4804023
:103AA000ADF8140010208DF8170003208DF81600D3
:103AB00005A92248FEF748FC6846FEF793FD6946D3
:103AC0001C48FFF7E5FA01211A48FFF78EFA4FF478
:103AD00080411A48FEF715FD0120154908700020A5
:103AE000B8E701210920FFF7CDF84FF43040ADF8D9
:103AF000140010208DF8170003208DF8160005A97A
:103B00000D48FEF721FC4FF48040ADF8140003206F
:103B10008DF8160048208DF8170005A90648FEF715
:103B200013FC012002494870002093E7012091E72F
:103B30001700002000300140000C01400008014047
:103B4000603B000800000020340000006A370008D5
:103B5000943B0008340000207C3200007A370008D3
:103B60000000000000000000000000000000000055
:103B70000100000000000000000000000000000044
:103B80000000000001020304010203040607080903
:043B9000020406081D
:040000050800213995
:00000001FF
